:020000040800F2
:1000000000500020853A0008CD350008CF350008A3
:10001000D1350008D3350008D535000800000000B0
:10002000000000000000000000000000D7350008BC
:10003000D935000800000000DB350008DD35000878
:10004000CD3A0008CD3A0008CD3A0008CD3A000874
:10005000CD3A0008CD3A0008CD3A0008CD3A000864
:10006000CD3A0008E1350008CD3A0008CD3A000845
:10007000CD3A0008CD3A0008CD3A0008CD3A000844
:1000800015360008CD3A0008CD3A0008CD3A0008F0
:10009000CD3A0008CD3A0008CD3A0008CD3A000824
:1000A000CD3A0008CD3A0008CD3A000819360008CC
:1000B00071360008CD3A0008CD3A0008CD3A000864
:1000C000CD3A0008CD3A0008CD3A0008CD3A0008F4
:1000D000CD3A0008CD3A0008CD3A0008CD3A0008E4
:1000E000CD3A0008CD3A0008CD3A000800000000E3
:1000F0000000000000000000000000000000000000
:0C01000000000000000000005FF808F1A3
:1001100010B5054C237833B9044B13B10448AFF341
:1001200000800123237010BD1C020020000000008D
:10013000305B000808B5034B1BB103490348AFF31C
:10014000008008BD0000000020020020305B000895
:1001500010F8012B11F8013B012A28BF9A42F7D071
:10016000D01A7047034613F8012B002AFBD1181A46
:100170000138704781F0004102E000BF83F0004386
:1001800030B54FEA41044FEA430594EA050F08BF32
:1001900090EA020F1FBF54EA000C55EA020C7FEAF6
:1001A000645C7FEA655C00F0E2804FEA5454D4EB73
:1001B0005555B8BF6D420CDD2C4480EA020281EA3D
:1001C000030382EA000083EA010180EA020281EA75
:1001D0000303362D88BF30BD11F0004F4FEA0131C7
:1001E0004FF4801C4CEA113102D0404261EB4101D6
:1001F00013F0004F4FEA03334CEA133302D052425C
:1002000063EB430394EA050F00F0A780A4F1010417
:10021000D5F1200E0DDB02FA0EFC22FA05F2801851
:1002200041F1000103FA0EF2801843FA05F3594137
:100230000EE0A5F120050EF1200E012A03FA0EFCB6
:1002400028BF4CF0020C43FA05F3C01851EBE371E0
:1002500001F0004507D54FF0000EDCF1000C7EEBFD
:1002600000006EEB0101B1F5801F1BD3B1F5001F3B
:100270000CD349085FEA30004FEA3C0C04F101045A
:100280004FEA445212F5800F80F09A80BCF1004F83
:1002900008BF5FEA500C50F1000041EB045141EA05
:1002A000050130BD5FEA4C0C404141EB010111F406
:1002B000801FA4F10104E9D191F0000F04BF0146B1
:1002C0000020B1FA81F308BF2033A3F10B03B3F18F
:1002D00020020CDA0C3208DD02F1140CC2F10C021F
:1002E00001FA0CF021FA02F10CE002F11402D8BF7D
:1002F000C2F1200C01FA02F120FA0CFCDCBF41EA49
:100300000C019040E41AA2BF01EB0451294330BD17
:100310006FEA04041F3C1CDA0C340EDC04F11404F4
:10032000C4F1200220FA04F001FA02F340EA0300CB
:1003300021FA04F345EA030130BDC4F10C04C4F111
:10034000200220FA02F001FA04F340EA03002946F1
:1003500030BD21FA04F0294630BD94F0000F83F43B
:10036000801306BF81F480110134013D4EE77FEA1E
:10037000645C18BF7FEA655C29D094EA050F08BF6A
:1003800090EA020F05D054EA000C04BF194610464B
:1003900030BD91EA030F1EBF0021002030BD5FEA8F
:1003A000545C05D14000494128BF41F0004130BDB7
:1003B00014F580043CBF01F5801130BD01F000450B
:1003C00045F0FE4141F470014FF0000030BD7FEA7E
:1003D000645C1ABF194610467FEA655C1CBF0B4679
:1003E000024650EA013406BF52EA033591EA030F90
:1003F00041F4002130BD00BF90F0000F04BF002188
:10040000704730B54FF4806404F132044FF00005BA
:100410004FF0000150E700BF90F0000F04BF002133
:10042000704730B54FF4806404F1320410F0004599
:1004300048BF40424FF000013EE700BF42004FEA94
:10044000E2014FEA31014FEA02701FBF12F07F4311
:1004500093F07F4F81F06051704792F0000F14BF0E
:1004600093F07F4F704730B54FF4607401F0004552
:1004700021F0004120E700BF50EA010208BF7047A9
:1004800030B54FF000050AE050EA010208BF70479E
:1004900030B511F0004502D5404261EB41014FF407
:1004A000806404F132045FEA915C3FF4DCAE4FF00B
:1004B00003025FEADC0C18BF03325FEADC0C18BFF2
:1004C000033202EBDC02C2F1200300FA03FC20FA43
:1004D00002F001FA03FE40EA0E0021FA02F1144490
:1004E000C1E600BF70B54FF0FF0C4CF4E06C1CEAA5
:1004F00011541DBF1CEA135594EA0C0F95EA0C0F1A
:1005000000F0DEF82C4481EA030621EA4C5123EA8C
:100510004C5350EA013518BF52EA033541F48011BB
:1005200043F4801338D0A0FB02CE4FF00005E1FB6E
:1005300002E506F00042E0FB03E54FF00006E1FBB8
:1005400003569CF0000F18BF4EF0010EA4F1FF04FB
:10055000B6F5007F64F5407404D25FEA4E0E6D413B
:1005600046EB060642EAC62141EA55514FEAC5204C
:1005700040EA5E504FEACE2EB4F1FD0C88BFBCF5C8
:10058000E06F1ED8BEF1004F08BF5FEA500E50F179
:10059000000041EB045170BD06F0004646EA01013F
:1005A00040EA020081EA0301B4EB5C04C2BFD4EB71
:1005B0000C0541EA045170BD41F480114FF0000E6A
:1005C000013C00F3AB8014F1360FDEBF002001F0D8
:1005D000004170BDC4F10004203C35DA0C341BDC52
:1005E00004F11404C4F1200500FA05F320FA04F024
:1005F00001FA05F240EA020001F0004221F0004158
:1006000010EBD37021FA04F642EB06015EEA430ECA
:1006100008BF20EAD37070BDC4F10C04C4F12005FA
:1006200000FA04F320FA05F001FA04F240EA0200AD
:1006300001F0004110EBD37041F100015EEA430E7E
:1006400008BF20EAD37070BDC4F1200500FA05F29E
:100650004EEA020E20FA04F301FA05F243EA02031D
:1006600021FA04F001F0004121FA04F220EA02002C
:1006700000EBD3705EEA430E08BF20EAD37070BD72
:1006800094F0000F0FD101F00046400041EB010152
:1006900011F4801F08BF013CF7D041EA060195F034
:1006A000000F18BF704703F00046520043EB0303EE
:1006B00013F4801F08BF013DF7D043EA06037047DB
:1006C00094EA0C0F0CEA135518BF95EA0C0F0CD0E6
:1006D00050EA410618BF52EA4306D1D181EA03012C
:1006E00001F000414FF0000070BD50EA410606BF26
:1006F0001046194652EA430619D094EA0C0F02D16B
:1007000050EA013613D195EA0C0F05D152EA0336AF
:100710001CBF104619460AD181EA030101F00041CD
:1007200041F0FE4141F470014FF0000070BD41F016
:10073000FE4141F4780170BD70B54FF0FF0C4CF4F0
:10074000E06C1CEA11541DBF1CEA135594EA0C0F0F
:1007500095EA0C0F00F0A7F8A4EB050481EA030E5C
:1007600052EA03354FEA013100F088804FEA033343
:100770004FF0805545EA131343EA12634FEA022211
:1007800045EA111545EA10654FEA00260EF00041D2
:100790009D4208BF964244F1FD0404F5407402D224
:1007A0005B084FEA3202B61A65EB03055B084FEAB5
:1007B00032024FF480104FF4002CB6EB020E75EBB2
:1007C000030E22BFB61A754640EA0C005B084FEADA
:1007D0003202B6EB020E75EB030E22BFB61A754657
:1007E00040EA5C005B084FEA3202B6EB020E75EBA2
:1007F000030E22BFB61A754640EA9C005B084FEA1A
:100800003202B6EB020E75EB030E22BFB61A754626
:1008100040EADC0055EA060E18D04FEA051545EA15
:1008200016754FEA06164FEAC30343EA52734FEABE
:10083000C2025FEA1C1CC0D111F4801F0BD141EA37
:1008400000014FF000004FF0004CB6E711F4801F9C
:1008500004BF01430020B4F1FD0C88BFBCF5E06F7C
:100860003FF6AFAEB5EB030C04BFB6EB020C5FEA8C
:10087000500C50F1000041EB045170BD0EF0004EE1
:100880004EEA113114EB5C04C2BFD4EB0C0541EA13
:10089000045170BD41F480114FF0000E013C90E610
:1008A00045EA060E8DE60CEA135594EA0C0F08BFD4
:1008B00095EA0C0F3FF43BAF94EA0C0F0AD150EAD3
:1008C00001347FF434AF95EA0C0F7FF425AF104666
:1008D00019462CE795EA0C0F06D152EA03353FF48E
:1008E000FDAE1046194622E750EA410618BF52EA0B
:1008F00043067FF4C5AE50EA41047FF40DAF52EADF
:1009000043057FF4EBAE12E74FF0FF3C06E000BF7B
:100910004FF0010C02E000BF4FF0010C4DF804CD88
:100920004FEA410C7FEA6C5C4FEA430C18BF7FEA48
:100930006C5C1BD001B050EA410C0CBF52EA430C76
:1009400091EA030F02BF90EA020F0020704710F1F6
:10095000000F91EA030F58BF994208BF90422CBF85
:10096000D8176FEAE37040F0010070474FEA410C7E
:100970007FEA6C5C02D150EA013C07D14FEA430C9C
:100980007FEA6C5CD6D152EA033CD3D05DF8040B0D
:10099000704700BF8446104662468C46194663463F
:1009A00000E000BF01B5FFF7B7FF002848BF10F116
:1009B000000F01BD4DF808EDFFF7F4FF0CBF01205B
:1009C00000205DF808FB00BF4DF808EDFFF7EAFFD7
:1009D00034BF012000205DF808FB00BF4DF808ED92
:1009E000FFF7E0FF94BF012000205DF808FB00BF87
:1009F0004DF808EDFFF7CEFF94BF012000205DF811
:100A000008FB00BF4DF808EDFFF7C4FF34BF01201D
:100A100000205DF808FB00BF4FEA410C7FEA6C5CE8
:100A200002D150EA013C0AD14FEA430C7FEA6C5CE8
:100A300002D152EA033C02D14FF0000070474FF060
:100A4000010070474A0011D212F5001211D20DD5E3
:100A50006FF47873B3EB62520ED44FEAC12343F0C4
:100A6000004343EA505323FA02F070474FF000006E
:100A7000704750EA013002D14FF0FF3070474FF01D
:100A80000000704780F0004002E000BF81F00041AC
:100A900042001FBF5FEA410392EA030F7FEA226C24
:100AA0007FEA236C6AD04FEA1262D2EB1363C1BFB4
:100AB000D218414048404140B8BF5B42192B88BF23
:100AC000704710F0004F40F4000020F07F4018BF46
:100AD000404211F0004F41F4000121F07F4118BF66
:100AE000494292EA030F3FD0A2F1010241FA03FC0E
:100AF00010EB0C00C3F1200301FA03F100F00043F6
:100B000002D5494260EB4000B0F5000F13D3B0F1BD
:100B1000807F06D340084FEA310102F10102FE2A2C
:100B200051D2B1F1004F40EBC25008BF20F001009C
:100B300040EA03007047490040EB000010F4000F4A
:100B4000A2F10102EDD1B0FA80FCACF1080CB2EBDD
:100B50000C0200FA0CF0AABF00EBC250524218433C
:100B6000BCBFD0401843704792F0000F81F40001E1
:100B700006BF80F400000132013BB5E74FEA4103B4
:100B80007FEA226C18BF7FEA236C21D092EA030F20
:100B900004D092F0000F08BF0846704790EA010F9A
:100BA0001CBF0020704712F07F4F04D1400028BFC7
:100BB00040F00040704712F100723CBF00F50000A9
:100BC000704700F0004343F0FE4040F400007047DF
:100BD0007FEA226216BF08467FEA2363014642028B
:100BE00006BF5FEA412390EA010F40F4800070479E
:100BF0004FF0000304E000BF10F0004348BF404244
:100C00005FEA000C08BF704743F0964301464FF07F
:100C100000001CE050EA010208BF70474FF00003DB
:100C20000AE000BF50EA010208BF704711F000431C
:100C300002D5404261EB41015FEA010C02BF8446EC
:100C40000146002043F0B64308BFA3F18053A3F54B
:100C50000003BCFA8CF2083AA3EBC25310DB01FA92
:100C600002FC634400FA02FCC2F12002BCF1004F16
:100C700020FA02F243EB020008BF20F001007047A7
:100C800002F1200201FA02FCC2F1200250EA4C00FB
:100C900021FA02F243EB020008BF20EADC70704741
:100CA0004FF0FF0C1CEAD0521EBF1CEAD15392EA4F
:100CB0000C0F93EA0C0F6FD01A4480EA010C40022B
:100CC00018BF5FEA41211ED04FF0006343EA501085
:100CD00043EA5111A0FB01310CF00040B1F5000FC7
:100CE0003EBF490041EAD3715B0040EA010062F176
:100CF0007F02FD2A1DD8B3F1004F40EBC25008BF60
:100D000020F00100704790F0000F0CF0004C08BF7D
:100D100049024CEA502040EA51207F3AC2BFD2F14A
:100D2000FF0340EAC250704740F400004FF0000358
:100D3000013A5DDC12F1190FDCBF00F00040704792
:100D4000C2F10002410021FA02F1C2F1200200FAD0
:100D500002FC5FEA310040F1000053EA4C0308BF97
:100D600020EADC70704792F0000F00F0004C02BFE8
:100D7000400010F4000F013AF9D040EA0C0093F063
:100D8000000F01F0004C02BF490011F4000F013BBD
:100D9000F9D041EA0C018FE70CEAD15392EA0C0F2B
:100DA00018BF93EA0C0F0AD030F0004C18BF31F096
:100DB000004CD8D180EA010000F00040704790F06C
:100DC000000F17BF90F0004F084691F0000F91F010
:100DD000004F14D092EA0C0F01D142020FD193EAD6
:100DE0000C0F03D14B0218BF084608D180EA01005E
:100DF00000F0004040F0FE4040F40000704740F03A
:100E0000FE4040F4400070474FF0FF0C1CEAD05207
:100E10001EBF1CEAD15392EA0C0F93EA0C0F69D063
:100E2000A2EB030280EA010C49024FEA402037D0CE
:100E30004FF0805343EA111143EA10130CF00040C5
:100E40008B4238BF5B0042F17D024FF4000C8B42B5
:100E500024BF5B1A40EA0C00B3EB510F24BFA3EB95
:100E6000510340EA5C00B3EB910F24BFA3EB910365
:100E700040EA9C00B3EBD10F24BFA3EBD10340EABF
:100E8000DC001B0118BF5FEA1C1CE0D1FD2A3FF605
:100E900050AF8B4240EBC25008BF20F001007047BA
:100EA0000CF0004C4CEA50207F32C2BFD2F1FF035D
:100EB00040EAC250704740F400004FF00003013A8E
:100EC00037E792F0000F00F0004C02BF400010F432
:100ED000000F013AF9D040EA0C0093F0000F01F046
:100EE000004C02BF490011F4000F013BF9D041EA68
:100EF0000C0195E70CEAD15392EA0C0F08D142029B
:100F00007FF47DAF93EA0C0F7FF470AF084676E76D
:100F100093EA0C0F04D14B023FF44CAF08466EE746
:100F200030F0004C18BF31F0004CCAD130F0004214
:100F30007FF45CAF31F000437FF43CAF5FE700BF6C
:100F400038B50E4B054618784FF47A73B3FBF0F3BF
:100F50000B4A1068B0FBF3F000F0F0FA044658B901
:100F60000F2D09D8024629464FF0FF3000F0A4FAB1
:100F7000044B20461D6038BD012038BD0000002014
:100F80004400002004000020074A08B5136803202D
:100F900043F01003136000F07DFA0020FFF7D0FF4C
:100FA00002F0F2FA002008BD00200240034A044B80
:100FB00011681B780B441360704700BF800200204B
:100FC00000000020014B1868704700BF800200201D
:100FD000F7B5002604460D460196FFF7F3FF236898
:100FE00007469A68D20508D50120A36A84F82460D0
:100FF00043F02003A36203B0F0BD5A68D60503D4C2
:10100000DB6A13F4700F3BD03A4B02201E6800F0ED
:101010001DFF2368384A1969B6FBF0F01142374AC0
:101020004FD1DE6836490E424BD11969114259D170
:10103000DA68344B1A4214BF2923142300FB03F649
:10104000019B9E4220D96B1C05D05DB1FFF7BAFF12
:10105000C01B854206D3019B01330193F0E7681C56
:101060000FD045B9A36A032043F00403A362002311
:1010700084F82430BFE7FFF7A5FFC01B8542F1D3FA
:10108000226813689907EAD56FF01203226813608B
:10109000A36A43F40073A362936803F46023B3F577
:1010A000602F25D1237B1BBBA36A23F48073A3622B
:1010B000A06A10F480501BD1A36A43F00103A3621D
:1010C00099E71969114203D1D9680E4A11420BD030
:1010D00019690D4A114209D1DB68134214BFFC2380
:1010E0005423ABE72923A9E75423A7E7FC23A5E76B
:1010F000002080E7440000202449922492244912D1
:101100002449920092244900499224000368D86C33
:1011100070470000002373B5019390F82430012B31
:1011200074D001234D6880F82430062D02684FEA00
:1011300085030C6825D82B441F25566B053B9D4025
:1011400026EA050504FA03F32B435363092C4FEAFF
:1011500044038D682FD907262344D1681E3B9E4047
:1011600021EA060105FA03F30B43D360A4F110034F
:10117000012B2BD90023002280F82420184602B02E
:1011800070BD0C2D0BD82B441F25166B233B9D40A7
:1011900026EA050504FA03F32B431363D6E72B4431
:1011A0001F25D66A413B9D4026EA050504FA03F354
:1011B0002B43D362CAE70726116923449E4021EAE4
:1011C000060105FA03F30B431361CFE7104B9A4274
:1011D00016D193681B02CDD49368102C43F40003FE
:1011E0009360C7D10B4B0C4A1B68B3FBF2F20A2386
:1011F00053430193019B002BBCD0019B013BF8E7BB
:10120000836A43F0200383620123B4E70223B5E736
:10121000002401404400002040420F00002373B529
:101220000193036804469A68D20702D5002002B0F1
:1012300070BD9A6842F001029A60124B124A1B6814
:10124000B3FBF2F30193019BC3B9FFF7BBFE064664
:1012500023689D6815F00105E8D1FFF7B3FE801BF8
:101260000228F5D9A36A84F8245043F01003A3623E
:10127000E36A012043F00103E362D8E7019B013BED
:10128000E0E700BF4400002040420F0090F8243007
:1012900010B5012B044654D0012380F82430FFF709
:1012A000BDFF002849D1A36A274A23F4407323F0E5
:1012B000010343F48073A3622368934204D123495A
:1012C0004A6812F4702F2ED1A26A22F48012A26210
:1012D0005A68520541BFA26A22F4405242F4805239
:1012E000A262A26A12F480521CBFE26A22F00602D5
:1012F000E262002284F824206FF002021A609A68E9
:1013000002F46022B2F5602F13D10F4A934205D147
:10131000A2F58062526812F4702F0AD19A6842F4E2
:10132000A0029A6010BDA26A42F48012A2624A68CA
:10133000CFE79A6842F48012F3E7002384F8243060
:1013400010BD022010BD00BF002801400024014054
:1013500038B5036804469A68D20701D4002038BD26
:101360009A6822F001029A60FFF72CFE0546236876
:101370009B68DB07F2D5FFF725FE401B0228F6D954
:10138000A36A012043F01003A362E36A43F0010360
:10139000E36238BD70B50446002871D0836A23B972
:1013A000C36280F8243001F0F9FA2046FFF7D0FF3D
:1013B000A36A13F0100FA36A64D1002862D1E16917
:1013C00023F48853626823F0020343F002030A43C4
:1013D000A168A362237BB1F5807F42EA430238D043
:1013E000012914BF06464FF48076257D012D07D1D3
:1013F000002B30D1A369013B46EA433545F4006632
:101400002368B1F5807F5D6825F4694545EA0605E6
:101410005D609E681D4D05EA060545EA02059D6072
:1014200001D0012920D1216901390905DD6A25F49E
:1014300070052943D9629968154B0B409A4215D122
:101440000023E362A36A23F0030343F00103A362D2
:1014500070BD0E46C9E7A36A43F02003A362E36AA6
:1014600043F00103E362CBE70021DFE7A36A23F047
:10147000120343F01003A362E36A43F00103E36243
:10148000012070BD43F01003A362F9E7FDF7E1FF0F
:10149000FE0E1FFF074A0002D36800F4E06023F449
:1014A000E0631B041B0C43F0BF6343F400330343AE
:1014B000D360704700ED00E0174B30B5DC68C4F333
:1014C0000224C4F10703251D042B28BF0423062D85
:1014D0004FF0010598BF002405FA03F303F1FF3331
:1014E00088BF033C1940A14005FA04F4013C2240A6
:1014F000002842EA01024FEA0212A9BF00F160404F
:10150000064BD2B200F56140BBBF00F00F00D2B273
:1015100080F800231A5430BD00ED00E014ED00E027
:10152000002808DB0123420900F01F0003FA00F045
:10153000014B43F82200704700E100E00138B0F1B0
:10154000807F0AD2F021064B064A586082F82310A9
:101550000020072298601A6070470120704700BF82
:1015600010E000E000ED00E010B530B31422016897
:10157000134B84680B44B3FBF2F39B000364114BE1
:101580000A68C363436822F47F522343C46822F08D
:10159000300223430469234344692343846923437A
:1015A000C469234313430B600122002380F82120E8
:1015B000836380F82030184610BD012010BD00BFA5
:1015C000F8FFFDBF00000240F0B590F82040012C6C
:1015D00035D0012490F8215080F82040A5424FF0EA
:1015E00000064FF0020428D180F821400468866389
:1015F0002668076C26F001062660C66BBD40756044
:10160000636043680568102BC36A0BBFA260A160CA
:10161000E160E2604BB1236843F00E0323602B6866
:10162000002043F001032B60F0BD236823F0040386
:101630002360236843F00A03F0E780F8206002206B
:10164000F0BD00002DE9F74F00242646664BDFF879
:10165000A8E1DFF8A8C10A6832FA06F502D103B0A2
:10166000BDE8F08F4FF0010808FA06F802EA080218
:1016700090457FD14D68122D00F0AA8000F2838042
:10168000022D00F0A28077D8002D00F08980012D76
:1016900000F099804FF00F09FF2A93BF824606F1B0
:1016A0008045083DD0F800B092BFB500D0F804B036
:1016B000AD0009FA05F82BEA080804FA05F588BF19
:1016C00000F1040A48EA0505CAF80050D1F804A060
:1016D0001AF0805F4ED0454D444FAD6926F00308A7
:1016E00045F00105BD61BD6908F1804805F00105BF
:1016F000019508F5803806F0030B019D4FEA8B0B2E
:10170000D8F8085009FA0BF925EA0909384DA8421A
:1017100063D005F58065A84261D005F58065A842D3
:101720005FD005F58065A8420CBF0325042505FAA6
:101730000BF545EA0905C8F808501D681AF4803F02
:1017400014BF154395431D605D681AF4003F14BF34
:10175000154395435D609D681AF4801F14BF1543BF
:1017600095439D60DD681AF4001F14BF2A4325EAE3
:101770000202DA6001366EE7032D22D0112D89D1E5
:10178000CC68043486E71B4FBD4209D012D8DFF87D
:1017900070904D4504D009F580394D457FF47AAFFE
:1017A0008C68C4B1012C0CBFC0F81080C0F8148044
:1017B00008246FE77545F3D06545F1D0DFF8449014
:1017C000EBE7002466E7CC6864E7CC68083461E79F
:1017D000CC680C345EE704245CE70025A7E701250C
:1017E000A5E70225A3E700BF000401400010024066
:1017F00000080140000021100000311000003210EC
:1018000000001110000022100AB1016170470904A4
:10181000FBE7704708B5044B5969014202D0586193
:10182000FFF7F7FF08BD00BF000401402DE9F341B9
:10183000054608B901203CE00368DB0710D42B689B
:101840009F075DD42B68190700F194802B685A0715
:1018500000F1BE80E869002840F02C81002028E0DB
:101860008F4C636803F00C03042B07D0636803F00C
:101870000C03082B09D16368DE0306D523689C039B
:10188000DDD56B68002BDAD1D4E76B68B3F5803F08
:1018900012D1236843F480332360FFF793FB06469D
:1018A00023689803CBD4FFF78DFB801B6428F7D9FE
:1018B000032002B0BDE8F0819BB9236823F4803394
:1018C0002360236823F480232360FFF77BFB064615
:1018D00023689903B3D5FFF775FB801B6428F7D9FC
:1018E000E6E7B3F5A02F236803D143F480232360F8
:1018F000CFE723F480332360236823F48023CBE7EE
:10190000674C636813F00C0F07D0636803F00C0397
:10191000082B10D16368DA030DD423689B0702D526
:101920002B69012B86D123686A6923F0F80343EA07
:10193000C203236086E72A695A4B6AB101221A6002
:10194000FFF740FB064623689F07ECD4FFF73AFBFE
:10195000801B0228F7D9ABE71A60FFF733FB064676
:10196000236898077FF56EAFFFF72CFB801B0228DA
:10197000F6D99DE7AA694A4C4B4BDAB101221A60AD
:10198000FFF720FB0646636A9B070DD54FF4FA521A
:10199000464B1B68B3FBF2F3019300BF019B5A1E39
:1019A0000192002BF9D151E7FFF70CFB801B0228B5
:1019B000E9D97DE71A60FFF705FB0646636A9F07D2
:1019C0007FF544AFFFF7FEFA801B0228F6D96FE7D8
:1019D000334CE369D80024D40127E36943F08053F2
:1019E000E361E36903F080530093009B304E33685A
:1019F000D90518D5EB68012B26D1236A43F00103E2
:101A00002362FFF7DFFA41F288368046236A9B079C
:101A10003FD5002F3FF41EAFE36923F08053E3610D
:101A200018E70027E2E7336843F480733360FFF779
:101A3000C9FA80463368DA05DCD4FFF7C3FAA0EBB5
:101A400008006428F6D933E7ABB9236A41F2883835
:101A500023F001032362236A23F004032362FFF7C8
:101A6000B1FA0646236A9807D3D5FFF7ABFA801B75
:101A70004045F7D91CE7052B236A03D143F0040343
:101A80002362BAE723F001032362236A23F00403ED
:101A9000B6E7FFF797FAA0EB0800B042B6D907E720
:101AA00000100240000042428004424244000020F4
:101AB000007000402A4B5A681C4602F00C02082AAB
:101AC0003DD00023274E022833602BD1FFF77AFA4E
:101AD0000746236899011FD42B6AB3F5803F05D1CF
:101AE0006268A96822F400320A436260696A626827
:101AF0000B4322F474121343636001233360FFF736
:101B000061FA054623689A013FF5A8AEFFF75AFA35
:101B1000401B0228F6D9CBE6FFF754FAC01B022877
:101B2000D7D9C5E6FFF74EFA054623689B017FF536
:101B300095AEFFF747FA401B0228F6D9B8E6012810
:101B40003FF4B7AE58682B6A00F480329A427FF4B3
:101B500071AE6B6A00F47010C01A18BF0120A8E6BD
:101B6000001002406000424230B5194B87B002AC11
:101B700003F11005224618685968083303C2AB42C6
:101B80001446F7D101238DF80430022311498DF852
:101B900005304B6803F00C02082A17D1C3F38342C7
:101BA00006A80244DB0312F8102C0CD54B680A4837
:101BB000C3F34043504306AA134413F8143CB0FB4C
:101BC000F3F007B030BD05485043FAE70248F8E7A4
:101BD000485B00080010024000127A0000093D0036
:101BE0002DE9F0410D46044610B90120BDE8F08111
:101BF000454A136803F007038B4229D321688E07F7
:101C000031D4CA0744D4404A136803F007039D4205
:101C100067D322683D4D12F0040F6ED1130706D52D
:101C20006B68226923F4605343EAC2036B60FFF7D9
:101C30009BFF6B68364AC3F30313D35CD840354B24
:101C40001860354B1868FFF77BF90020BDE8F0817C
:101C5000136823F007030B431360136803F00703B3
:101C60009942C2D1CAE7294B11F0040F1EBF5A682E
:101C700042F4E0625A60080742BF5A6842F4605278
:101C80005A605A68A06822F0F00202435A60B8E72E
:101C900062681E4E012A33681BD113F4003FA4D0A2
:101CA000736841F2883823F0030313437360FFF72E
:101CB00089F907467368626803F00C03B3EB820F7F
:101CC000A1D0FFF77FF9C01B4045F3D90320BDE841
:101CD000F081022A02D113F0007FE0E713F0020F37
:101CE000DDE7136823F007032B431360136803F049
:101CF00007039D427FF479AF8BE76B68E16823F4BB
:101D0000E0630B436B6089E7002002400010024053
:101D1000225D00084400002004000020044B054A16
:101D20005B68C3F30223D35C034A1068D840704752
:101D300000100240325D000844000020044B054AB8
:101D40005B68C3F3C223D35C034A1068D840704772
:101D500000100240325D00084400002003682DE9B5
:101D6000F341D907054620D5354CE369DA0032D472
:101D70000127E36943F08053E361E36903F0805393
:101D80000193019B2F4E3368DB0526D5236A13F49C
:101D9000407336D1236A6A6823F440731343236285
:101DA0001FB1E36923F08053E3612868830706D5F8
:101DB000234AA968536823F440430B43536010F04F
:101DC00010001BD01E4AE9685368002023F48003EA
:101DD0000B43536012E00027D4E7336843F4807369
:101DE0003360FFF7EFF880463368D805CED4FFF7AD
:101DF000E9F8A0EB08006428F6D9032002B0BDE89A
:101E0000F0816A6802F440729342C3D001200E4A06
:101E1000236A1060002023F4407110602162D9070A
:101E2000B8D5FFF7CFF841F288380646236A9A07FB
:101E3000B0D4FFF7C7F8801B4045F7D9DDE700BFF6
:101E400000100240007000404004424270B5044659
:101E5000354B86B002AD03F110062A461868596862
:101E6000083303C2B3421546F7D101238DF804307D
:101E700002239C428DF8053047D0102C17D0012C3E
:101E80004FD140F20231294A136A1940B1F5817FDE
:101E900044D003F44073B3F5007F2DD149F64040A0
:101EA000536A13F0020F08BF002006B070BD1F4B2D
:101EB0005968186810F08070F7D0C1F3834206A803
:101EC000024412F8100CCA0341BF5A6806A9C2F3B3
:101ED0004042521844BF12F8141C154A5B684CBFAC
:101EE000B2FBF1F2134A5B0202FB00F0DDD40323E4
:101EF0004000B0FBF3F0D8E7B3F5407F11D1136891
:101F00004FF2244013F4003FCDE7FFF717FF074BD4
:101F10005B68C3F3813301335B00EAE74FF40040B1
:101F2000C3E70020C1E700BF585B00080010024073
:101F300000127A0000093D00036A70B523F0010326
:101F40000362036A446882690D6822F073022A43BF
:101F50008D6823F002032B430A4DA8420BD1CD68B4
:101F600023F008032B438E694D6924F440743543F4
:101F700023F004032C43446082614A684263036295
:101F800070BD00BF002C0140036A70B523F480735C
:101F90000362036A4468C2690D6822F073022A432F
:101FA0008D6823F4007343EA05230B4DA8420DD13D
:101FB000CD6823F4006343EA05238E694D6924F458
:101FC0004054354323F4806344EA05144460C261FD
:101FD0004A68C263036270BD002C0140036A30B5D9
:101FE00023F480530362036A4468C2690D6822F4D3
:101FF000E64242EA05228D6823F4005343EA0533A2
:10200000064DA84202BF4D6924F4804444EA851479
:102010004460C2614A680264036230BD002C014022
:1020200003680020DA6842F00102DA609A6802F080
:102030000702062A1EBF1A6842F001021A607047A2
:1020400070477047704770477047036810B51A694A
:10205000044691070ED5DA6892070BD56FF002029D
:102060001A6101229B6902779B0777D0FFF7EBFF8C
:102070000023237723681A69500710D5DA685107BF
:102080000DD56FF004021A6102229B69227713F4C6
:10209000407F204668D0FFF7D6FF002323772368D0
:1020A0001A6912070FD5DA6810070CD56FF008020D
:1020B0001A610422DB692277990720465AD0FFF77C
:1020C000C2FF0023237723681A69D20610D5DA6885
:1020D000D0060DD56FF010021A610822DB69227755
:1020E00013F4407F20464BD0FFF7ADFF002323774A
:1020F00023681A69D10708D5DA68D20705D56FF0C9
:10210000010220461A61FFF79CFF23681A69100636
:1021100008D5DA68110605D56FF0800220461A61ED
:1021200000F05BFA23681A69520608D5DA6850068F
:1021300005D56FF0400220461A61FFF785FF23683E
:102140001A69910622D5DA6892061FD56FF020022F
:102150002046BDE810401A6100F03EBAFFF772FF5A
:10216000204601F05FFA83E7FFF76CFF204601F09D
:1021700059FA92E7FFF766FF204601F053FAA0E70D
:10218000FFF760FF204601F04DFAAFE710BD0000F9
:102190001A4A036890420AD0B0F1804F07D0A2F5E6
:1021A0009432904203D002F58062904215D14A6881
:1021B00023F070031343114A90420AD0B0F1804FCC
:1021C00007D0A2F59432904203D002F5806290428B
:1021D00003D1CA6823F4407313434A6923F0800390
:1021E000134303608B68C3620B688362034B98429E
:1021F00004BF0B690363012343617047002C014056
:1022000010B50446A0B190F83D3003F0FF021BB9B1
:1022100080F83C2001F002FB0223206884F83D3066
:10222000211DFFF7B5FF0123002084F83D3010BDCC
:10223000012010BD10B50446A0B190F83D3003F068
:10224000FF021BB980F83C20FFF7FAFE022320684A
:1022500084F83D30211DFFF79BFF0123002084F807
:102260003D3010BD012010BD036A70B523F010038E
:102270000362036A446882690D6822F4E64242EA16
:1022800005228D6823F0200343EA05130B4DA84275
:102290000DD1CD6823F0800343EA05138E694D69A3
:1022A00024F44064354323F0400344EA8504446049
:1022B00082614A688263036270BD00BF002C0140E6
:1022C00038B590F83C300446012B4FF0020025D081
:1022D000012384F83D0084F83C300C2A18D8DFE84C
:1022E00002F0071717171E1717172F171717400099
:1022F0002068FFF721FE236809699A6942F0080205
:102300009A619A6922F004029A619A690A439A6171
:102310000123002084F83D3084F83C0038BD20685B
:10232000FFF7A2FF236809699A6942F400629A6183
:102330009A6922F480629A619A6942EA0122E6E788
:102340002068FFF721FE23680969DA6942F0080274
:10235000DA61DA6922F00402DA61DA690A43DA61E1
:10236000D6E72068FFF73AFE23680969DA6942F484
:102370000062DA61DA6922F48062DA61DA6942EADB
:102380000122ECE710B584680A4324F47F4442EA52
:1023900003232343836010BD90F83C3070B5012BBC
:1023A00004464FF0020019D0012384F83D00206854
:1023B00084F83C30836823F47F4323F07703836001
:1023C0000B68402B65D015D8102B0CD007D853B113
:1023D0000123002084F83D3084F83C0070BD202BA0
:1023E00001D0302BF4D1826843F0070322F0700251
:1023F00013431AE0602B34D019D8502BE8D14A6827
:10240000CE68016A056A21F00A0125F0010505621E
:1024100083690A4323F0F00343EA061383610262EF
:10242000836823F0700343F057038360D0E7702B79
:102430000CD0B3F5005FCBD1CB684A688968FFF751
:10244000A1FF2268936843F4804308E0CB684A68A0
:102450008968FFF797FF2268936843F077039360DA
:10246000B6E74D68CE68016A21F010010162826909
:10247000036A22F4704223F0A00343EA051342EA00
:10248000063282610362836823F0700343F06703BE
:10249000CBE74A68CE68016A056A21F00A0125F097
:1024A0000105056283690A4323F0F00343EA06133A
:1024B00083610262836823F0700343F04703B4E74B
:1024C00010B50124036A01F01F018C4023EA0403C4
:1024D0000362036A8A401A43026210BD10B50446C3
:1024E0000C290DD8DFE801F0070C0C0C230C0C0CA8
:1024F000280C0C0C2D000268D36843F00203D36053
:1025000020680122FFF7DCFF2368104A0020934275
:1025100002BF5A6C42F400425A649A6802F0070201
:10252000062A1EBF1A6842F001021A6010BD026836
:10253000D36843F00403E2E70268D36843F008037A
:10254000DDE70268D36843F01003D8E7002C0140B0
:1025500090F83C3030B5012B4FF0020314D00468E2
:1025600080F83D306268A3680D68496822F0700207
:1025700023F080030B432A436260A360012380F8A9
:102580003D30002380F83C30184630BD90F83C3098
:10259000012B1FD0CB688A6823F4407313434A6829
:1025A00023F4806313430A6823F4006313430A6926
:1025B00023F4805313434A6923F400531343CA6935
:1025C00023F48043134302685364002380F83C30B3
:1025D0001846704702207047704770470368DA68F2
:1025E00022F49072DA605A6922F001025A612023C3
:1025F00080F83A307047000038B505460368C16876
:102600001A69192422F440520A431A618268006947
:10261000D9680243686921F4B05121F00C010243EA
:102620000A43DA605A69A96922F440720A435A617E
:102630000D4A934214D1FFF781FB60436C6864221A
:10264000A400B0FBF4F0B0FBF2F402FB14031B0196
:102650003233B3FBF2F3296803EB04138B6038BD0C
:10266000FFF75CFBE9E700BF00380140F8B504461E
:102670000E4617461D4621680B6836EA030301D152
:102680000020F8BD6B1CF7D095B923680320DA68E9
:1026900022F4D072DA605A6922F001025A612023D2
:1026A00084F8393084F83A30002384F83830F8BDA3
:1026B000FEF788FCC01B8542DDD2E6E710B5044674
:1026C00040B390F8393003F0FF021BB980F838208E
:1026D00001F086F92423226884F83930D368204633
:1026E00023F40053D360FFF787FF236800201A69A3
:1026F00022F490421A615A6922F02A025A61DA6879
:1027000042F40052DA602023E06384F8393084F820
:102710003A3010BD012010BD2DE9F0411F4690F860
:1027200039300446202B0D4690464ED1002949D021
:10273000002A47D090F83830012B46D0012380F88A
:1027400038300023C363212380F83930FEF73AFC88
:102750000646A4F82480A4F82680E38C9BB26BB9CB
:102760003B46324640212046FFF780FFA8B9202390
:1027700084F8380084F83930BDE8F081E38C3246C3
:10278000013B9BB2E384A3688021B3F5805F2046C0
:102790003B460ED1FFF76AFF10B10320BDE8F08180
:1027A0002B882268C3F308035360236943B90235B9
:1027B000D3E7FFF75BFF0028EFD123682A785A6040
:1027C0000135CAE70120BDE8F0810220BDE8F081B3
:1027D000134690F83A2073B5202A054638D10029CF
:1027E00034D0002B32D090F83820012A30D001228A
:1027F000002480F83820222281628385C46380F817
:102800003A20406B134A2E688262134A4463C262C4
:10281000124A02630A46311DFEF7D6FE20462B6897
:1028200001941A6801925A6885F838400192019A19
:10283000DA6842F48072DA605A6942F001025A6141
:102840005A6942F040025A6102B070BD0120FBE7B4
:102850000220F9E7632800089D280008A92800083D
:10286000704708B50368426A1B6813F0200310D153
:10287000D3851368D96821F48071D960596921F032
:1028800001015961596921F040015961202382F801
:102890003A301046FFF7E4FF08BD704708B5406ABC
:1028A000FFF7FBFF08BD7047416A08B50B685A691E
:1028B00091F8390021280AD1120608D50022CA84CD
:1028C000DA6822F0C002DA60202281F839205B69E0
:1028D00091F83A20222A06D15B0604D50023084647
:1028E000CB85FFF77BFECB6B084643F01003CB6331
:1028F000FFF7D9FF08BD836841681B685A68036801
:102900008A1AC06813448342A3EB000038BF401802
:102910007047826830B590E830001268034651680D
:10292000C068691A2144884208D0421C2C44DA60ED
:10293000A242007803D3521BDA6030BD002030BDC4
:1029400080E80C008160C260704700001FB511482C
:10295000114A0023026001244FF460220193029384
:102960000393836003730375C26143600461FEF7E0
:1029700011FD08B100F0C4FD04230193002301A957
:10298000044802940393FEF7C5FB08B100F0B8FDBC
:1029900004B010BD840200200024014010B504469C
:1029A00086B01022002102A801F0C0F82268104B66
:1029B0009A421BD103F56C439A6902A942F4007252
:1029C0009A619A690B4802F400720092009A9A691F
:1029D00042F004029A619B6903F004030193019B96
:1029E0007023029303230393FEF72CFE06B010BD61
:1029F00000240140000801401FB501230293002379
:102A0000094C01A9019020460393FEF783FB204661
:102A1000FEF73CFC64212046FEF7DAFA2046FEF77A
:102A200075FB04B010BD00BF840200200A4B07B53F
:102A30005A69012142F001025A615B69002203F0E8
:102A4000010301931020019BFEF736FD1020FEF7D5
:102A500067FD03B05DF804FB001002404FF47A728A
:102A6000054B06491B68B3FBF2F20A60044AB3FB4C
:102A7000F2F3044A1360704744000020380200203B
:102A800040420F003C020020054AD36843F08073A7
:102A9000D360044A136843F001031360FFF7DEBFFD
:102AA000F0ED00E0001000E0044A054B12685968A0
:102AB00050435A68521A9042FBD87047380200209F
:102AC000001000E010222DE9F04389B00DEB020068
:102AD000002101F02BF8384BDFF8E8909A69DFF815
:102AE000E88042F010029A619A69344D02F01002B7
:102AF0000092009A9A69484642F020029A619A69C7
:102B00004FF4005102F020020192019A9A690024C8
:102B100042F004029A619A69012702F004020292CB
:102B2000029A9A69022642F008029A619B69002281
:102B300003F008030393039BFEF766FE4046002262
:102B40004FF4F061FEF760FE0022284640F6034194
:102B5000FEF75AFE4FF4005304A948460493059724
:102B600006940796FEF76EFD4FF4F06304A9404605
:102B70000493059706940796FEF764FD40F6034319
:102B800004A928460493059706940796FEF75AFD74
:102B9000082304930A4B04A9284605930694FEF7DC
:102BA00051FD224621460920FEF786FC0920FEF74A
:102BB000B7FC09B0BDE8F08300100240000C0140F2
:102BC00000003110001001400008014010B52649F6
:102BD0000446FDF7BDFA30B9244B25491870254845
:102BE00000F0D0FF20E024492046FDF7B1FA20B9DB
:102BF00001221E4B21491A70F1E721492046FDF7B9
:102C0000A7FA30B9194B1B78012B02D11D4A13705A
:102C10000AE01D492046FDF79BFA80B9134B1B784B
:102C2000012B0CD1174B18701248FDF79BFABDE829
:102C3000104082B264230F491448FFF76DBD144958
:102C40002046FDF785FA68B90222084B1149094868
:102C50001A7000F097FF0A220F4B1B78B3FBF2F3B8
:102C60000E4AD4E70E49BAE7C55B00086C020020A3
:102C7000CA5B000806040020DE5B0008E75B000872
:102C8000FF5B00085C0200200B5C0008B005002020
:102C9000185C00081E5C000843020020640200204B
:102CA000335C000837B51549154CC988154A2046CC
:102CB000538892880091144900F040FF2046FDF7A8
:102CC00051FA124D82B2214664232846FFF724FDB3
:102CD0000F4920464B880A88898800910D4900F0E9
:102CE0002DFF2046FDF73EFA642382B22146284696
:102CF00003B0BDE83040FFF70FBD00BFD602002093
:102D0000060400206A040020805B0008B005002053
:102D100084040020A05B000870B500241B4E1C4DED
:102D200056F82400FFF768FE25F814000134032C40
:102D3000F6D12B88174C1B0923800E2342F2283032
:102D40006A8853431B136380AB885843C3F57F6382
:102D50000F3390FBF3F0FDF74FFF0F4B0146186068
:102D60000E48FEF751F8FDF769FB01F0F9FB02464A
:102D70000B46FDF705FA02460B460020084901F014
:102D800069FCFDF75FFEA08070BD00BF3800002029
:102D9000900400208404002048020020007C924718
:102DA0000000244010B5084C0849204600F0EAFE17
:102DB0002046FDF7D7F92146BDE8104082B26423D2
:102DC0000348FFF7A9BC00BF06040020685B0008A9
:102DD000B005002010B5084C0849204600F0D2FE8E
:102DE0002046FDF7BFF92146BDE8104082B26423BA
:102DF0000348FFF791BC00BF060400206D5B00088C
:102E0000B00500203F4B70B51B78012B79D13E4DAA
:102E10003E4C2B7822783E493E4800F08FFE3D48DC
:102E2000FDF7A0F9642382B23A493B48FFF774FCEE
:102E30006B7862783949374800F080FE3548FDF7F5
:102E400091F9642382B233493348FFF765FCAB78CC
:102E5000A27833492F4800F071FE2E48FDF782F921
:102E6000642382B22B492C48FFF756FC2D4B2E4988
:102E70001A78284800F062FE2648FDF773F92B4CBB
:102E8000642382B223492448FFF746FC228828495C
:102E9000204800F053FE1F48FDF764F9642382B216
:102EA0001C491D48FFF738FCA2882249194800F048
:102EB00045FE1848FDF756F91F4C642382B21549A8
:102EC0001548FFF729FC22781C49124800F036FE0D
:102ED0001048FDF747F9642382B20E490E48FFF708
:102EE0001BFC627816490B4800F028FE0948FDF7E4
:102EF00039F9BDE8704082B2642306490648FFF7FD
:102F00000BBC70BD5C0200203400002020000020BB
:102F1000915C000806040020B0050020A45C0008B5
:102F2000B65C000843020020C45C00080C000020CE
:102F3000D55C0008E45C000840020020F65C000854
:102F40000B5D00089E4B10B51B78012B40F0FF80F5
:102F50009C4B072219689C4800F01CFE20BB0222F3
:102F60009A499B4800F028FE02229A499A4800F0AC
:102F700023FE974800F0ABFD984CA0F10F030F2BF8
:102F8000206040F2E580FFF725FF00239248236090
:102F900000F09DFDA0F10F030F2B206040F2DD80BB
:102FA000FFF718FF002323608D4B05221968864820
:102FB00000F0F0FD20BB02228A49854800F0FCFDAC
:102FC00002228949844800F0F7FD814800F07FFD26
:102FD000824CA0F11403462B206040F2C380FFF71F
:102FE000F9FE00237C48236000F071FDA0F114037A
:102FF000462B206040F2BB80FFF7ECFE00232360ED
:103000007A4B03221968704800F0C4FD10BB0122FE
:1030100077496F4800F0D0FD012272496E4800F0F8
:10302000CBFD6B4800F053FD6C4C031F042B20605C
:1030300040F2A280FFF7CEFE00236748236000F035
:1030400046FD031F042B206040F29B80FFF7C2FE69
:1030500000232360674B082219685B4800F09AFD43
:1030600090B902226049644800F0A6FD624800F071
:103070002EFD5A4CA0F10A025A2A206040F28680A6
:10308000FFF7A8FE002323605C4B062219684E4818
:1030900000F080FD88B904225949574800F08CFDA2
:1030A000554800F014FD40F6B8324C4C9042206078
:1030B00071D9FFF78FFE00232360524B0822196855
:1030C000414800F067FD90B9042247494A4800F0A2
:1030D00073FD494800F0FBFC404CA0F16402B2F5DE
:1030E000166F20605CD9FFF775FE00232360464B06
:1030F0000B221968344800F04DFD80B90222434983
:103100003D4800F059FD3C4800F0E1FC334C421EC4
:10311000132A206049D9FFF75DFE002323603C4B52
:103120000B221968284800F035FD80B90222374982
:10313000314800F041FD304800F0C9FC274C421EE8
:10314000042A206036D9FFF745FE0023236010BD16
:10315000304B1870FFF726FE17E72F4B1870FFF75C
:1031600021FE1FE72B4B5870FFF71CFE39E72A4B57
:103170005870FFF717FE41E7264B9870FFF712FED5
:103180005AE7254B9870FFF70DFE61E7234B187047
:10319000FFF708FE76E7224B1880FFF703FE8AE769
:1031A0001F4B9880FFF7FEFD9FE71E4B1870FFF73F
:1031B000F9FDB2E71B4B5870FFF7F4FDC5E700BF00
:1031C0006C02002018000020B8020020BF0200207E
:1031D000F2020020C2020020D80400205802002081
:1031E00014000020BD020020C002002024000020A6
:1031F000BB02002030000020DE0200201C00002066
:10320000BE0200200800002028000020C302002089
:103210002C00002020000020340000204302002069
:103220000C000020400200200022044B80211A7074
:103230000122034B03481A70FEF7E6BA5C02002035
:1032400050020020000C014010B50024094B22461A
:103250001C70094B802109481C70FEF7D5FA084BF9
:103260005C701C701C71DC709C70064B5C701C7078
:1032700010BD00BF5C02002050020020000C014085
:10328000510200204302002038B52D4BDB881A2B59
:1032900002D90122012104E0172B2BD801224FF47F
:1032A0000061284D284C2948FEF7AEFAA9882078FD
:1032B000884227D201224FF400712448FEF7A4FA75
:1032C0006A8863789A4233D901224FF400711F480B
:1032D000FEF79AFA1E4B4FF400711A881D4B1B48DB
:1032E0009B889A4288BF0122BDE8384098BF0022DF
:1032F000FEF78ABA00224FF400611448FEF784FA00
:103300000022C7E7144B1B788B4209D901224FF4E6
:1033100000710E48FEF778FA01224FF48071CCE775
:1033200000224FF400710948FEF76EFA0022F4E71C
:10333000002202210548FEF767FA0022C5E700BF18
:10334000D60200206A04002034000020000C014056
:10335000840400200C000020200000200B4B1B7870
:1033600083B90B4B99880B4B1A8891423FBF0A488F
:10337000437801334370914207D9074A5378013BA0
:10338000537070470022044B5A7070476E02002041
:10339000840400200C000020430200202DE9F843A3
:1033A000494CFDF7F1FD00F0ACF8FFF78BFBFFF7A0
:1033B0003DFB00F0F9FAFFF7C9FA00F0FBF900F065
:1033C00089FA4FF48073414A616B4148FFF7B8FABC
:1033D0004FF480723D492046FFF7FAF93D48FEF769
:1033E0001FFE3D4F08213D48FFF778F80C213B4870
:1033F000FFF774F8B946FFF731FBFFF745FBDFF83D
:10340000D0803B787BB1364C2078FFF74DFB23789A
:103410000A2B05D000224FF480613248FEF7F4F900
:10342000002389F80030304B1B78012B27D03DD387
:10343000022B34D0FFF770FC4046FFF75CFA2B4DAF
:103440002B4E28602B685A1E2A60002BD9D040468C
:10345000FFF75FFA0A282FD10024264B21461A785D
:103460002548B4541E221C7000F060FB224A335DD4
:10347000FBB9FFF767FD3046FFF7A8FBE2E7FDF772
:10348000A1FD1E4C2368C01AB0F57A7FD2D9FFF790
:1034900009FCFFF7B7FCFDF795FD2060CAE7FFF7D1
:1034A000C3FEFFF7F1FEFFF759FFC3E7FFF7CCFEBE
:1034B000C0E7A3540134DAE70D28C3D00D4A1378CE
:1034C000591C1170F054BDE7B00500200603002020
:1034D000740400202C0500206D020020EC04002064
:1034E00064020020000801406C02002068020020F5
:1034F0009C0400205D020020B80200206002002031
:103500007047282210B594B000210DEB020000F0A6
:103510000DFB142200210DEB020000F007FB10222E
:10352000002101A800F002FB4FF4803301220B932D
:10353000022412934FF4E0130AA80A920E921194F7
:103540001393FEF773F908B1FFF7DAFF0F23059322
:10355000002307934FF4E063022105A80694089323
:103560000993FEF73DFB08B1FFF7CAFF0223019361
:103570004FF4004301A80393FEF7F0FB08B1FFF7F7
:10358000BFFF14B010BD00000E4B82B09A6942F02C
:1035900001029A619A6902F001020092009ADA69C6
:1035A00042F08052DA61DB69074A03F080530193ED
:1035B000019B536823F0E06343F00073536002B053
:1035C000704700BF00100240000001407047FEE756
:1035D000FEE7FEE7FEE7704770477047FDF7E6BC81
:1035E00008B50820FEF716F9074B1B78022B09D106
:1035F0000122064B4FF480611A700548BDE808406F
:10360000FEF702B908BD00BF6C0200206D02002069
:1036100000080140704700000148FEF716BD00BFDA
:10362000EC040020054B1B78012B06D1044A0368EB
:10363000934202BF034A52781A6470475002002036
:10364000002C01404302002010B5047809788C4218
:1036500004D1197811B901241C70017001789142CC
:1036600005D11A78012A02BF00221A70027010BD1B
:1036700010B52548FEF7E9FC244B1B78022B42D1FC
:10368000234B19781A460131C9B23B2901D8197068
:1036900010BD002099781870013199705978013166
:1036A0005970D9780131C9B23B290ED8D970194B5C
:1036B000022219491948FFF7C7FFBDE81040184B0F
:1036C000012218491848FFF7BFBFD87012491B796B
:1036D00089780133DBB28B42137107D11348037829
:1036E00023B9134C13716370012303701379C1F173
:1036F00018018B42DBD10D4B19780029D7D000215E
:1037000011711970D3E710BD2C0500206C02002048
:1037100051020020700200204002002053020020CD
:103720006F02002041020020520200206E020020A1
:103730004302002008B50A4B0246196809B9094935
:1037400019606946186802448A4206D900F0C4F933
:103750000C2303604FF0FF3008BD1A6008BD00BFA6
:1037600074020020F40500200F4B1A6842F0010299
:103770001A6059680D4A0A405A601A6822F0847229
:1037800022F480321A601A6822F480221A605A6881
:1037900022F4FE025A604FF41F029A604FF000625A
:1037A000034B9A60704700BF001002400000FFF812
:1037B00000ED00E07FB51022002102A800F0B6F96C
:1037C00042F227324FF080411348002380E8060080
:1037D00040F2E732009301938360C260036183612A
:1037E000FEF70EFD08B1FFF78BFE4FF4805302A9E0
:1037F00009480293FEF7D0FD08B1FFF781FE0023D0
:103800006946054800930193FEF7A2FE08B1FFF751
:1038100077FE07B05DF804FB2C05002007B50368B0
:10382000164A934214D1164B1B209A6942F4006247
:103830009A6100229B69114603F400630093009B88
:10384000FDF73AFE1B20FDF76BFE03B05DF804FBAD
:10385000B3F1804FF9D103F50433DA691C2042F04B
:103860000102DA610022DB69114603F001030193D2
:10387000019BFDF721FE1C20E5E700BF002C014065
:103880000010024010B5044686B01022002102A8A4
:1038900000F04CF922680D4B9A4214D103F56443B1
:1038A0009A6902A942F004029A619B69084803F0F0
:1038B00004030193019B4FF40063029302230393DB
:1038C0000593FDF7BFFE06B010BD00BF002C014000
:1038D0000008014010B596B01022002103A8002472
:1038E00000F024F91C2221460DEB02000194029401
:1038F00000F01CF9202221460EA800F017F940F232
:1039000083332748274A846080E80C0063230461DE
:10391000C36044618461FEF773FC08B1FFF7F0FDFA
:103920004FF4805303A91E480393FEF735FD08B1F9
:10393000FFF7E6FD1A48FEF77DFC08B1FFF7E0FD52
:10394000002401A9164801940294FEF701FE08B173
:10395000FFF7D6FD60230C2207A9114807930894AE
:1039600009940B940C940D94FEF7AAFC08B1FFF790
:10397000C7FD00234FF400520EA909480E930F9380
:1039800010931193129313921593FEF7FFFD08B154
:10399000FFF7B6FD0248FFF775FF16B010BD00BF78
:1039A000EC040020002C014008B54FF4165E0A48D4
:1039B0000A4B0C2280E80840002342618360C36008
:1039C00003618361C361FEF779FE18B1BDE8084069
:1039D000FFF796BD08BD00BFB005002000440040C1
:1039E00070B5064686B01022002102A800F09EF8AD
:1039F0003268204B9A423BD103F5E633DA6902A9DB
:103A000042F40032DA61DA691B4802F400320092B3
:103A1000009A9A69002542F004029A619B69174C4A
:103A200003F004030193019B0423029302230393F5
:103A300003230593FDF706FE08230F480DEB030152
:103A4000029303950495FDF7FDFD0D4B204684E898
:103A500028008023E3602023A56025616561A361C0
:103A6000E561FDF781FD08B1FFF74AFD7463666209
:103A700006B070BD00440040000801406C05002005
:103A80006C000240002103E00B4B5B5843500431B3
:103A90000A480B4B42189A42F6D30A4A02E0002326
:103AA00042F8043B084B9A42F9D3FFF75DFE00F061
:103AB00019F8FFF773FC7047D05E00080000002083
:103AC0001C0200201C020020F4050020FEE70A2250
:103AD000002100F007B90000014B1868704700BFD3
:103AE0004800002070B500250C4E0D4CA41BA410FE
:103AF000A54209D102F01CF800250A4E0A4CA41B6D
:103B0000A410A54205D170BD56F82530984701355F
:103B1000EEE756F8253098470135F2E7C85E000811
:103B2000C85E0008C85E0008CC5E00080346024478
:103B3000934200D1704703F8011BF9E70EB44FF42C
:103B4000027100B59CB0ADF814106FF00041049103
:103B500007914FF6FF711DAB02900690084853F88D
:103B6000042BADF81610006802A9019300F040F98B
:103B70000022029B1A701CB05DF804EB03B0704782
:103B800048000020034611F8012B03F8012B002AFE
:103B9000F9D1704710B56AB10139841810F8013BAA
:103BA00011F8012F934203D1A04201D0002BF5D18F
:103BB000981A10BD104610BD70B5044602B970BD0C
:103BC000234611F8015B561E03F8015B1DB914442E
:103BD000A34203D170BD1C463246EFE703F8015BF8
:103BE000F6E72DE9F84F8046894692461F468B46F8
:103BF0005D460A9815F8014B00F08AF82044467893
:103C000016F008060BD12D2C0BD101262C780BF1C8
:103C1000020567B1102F14D1302C0AD011E0AB4649
:103C2000E6E72B2C04BF2C780BF10205F1E7302CD2
:103C300027D12B7803F0DF03582B4BD110276C785A
:103C40000235002E0CBF6FF000414FF00041002202
:103C5000B1FBF7FE104607FB1E1CA4F13003092B35
:103C600011D81C46A7421DDD531C07D0864516D32C
:103C700001D1A44513DB012200FB074015F8014BDD
:103C8000EBE70A27DDE7A4F14103192B01D8373C04
:103C9000E8E7A4F16103192B04D8573CE2E74FF0A1
:103CA000FF32EBE7531C08D122230846C8F8003046
:103CB000BAF1000F07D1BDE8F88F06B14042BAF162
:103CC000000F0CD022B1013DCAF80050BDE8F88FBA
:103CD0004D46F9E73024002FB3D10827B1E7BDE8FE
:103CE000F88F0000084B37B51C68084D236A002B7D
:103CF00008BF2B46009313460A4601462046FFF7AD
:103D000070FF03B030BD00BF48000020AC000020B1
:103D1000D0F8EC00704782B001B901A942B14BB1B3
:103D200013780B601278101C18BF012002B0704786
:103D30001046FBE76FF00100F8E72DE9F0478E68C9
:103D400082469E420C469146984635D88A8912F49E
:103D5000906F31D00223256809696F1A656905EBF8
:103D6000450595FBF3F508F101033B449D4238BF3F
:103D70001D46530531D5294600F052FB064650B981
:103D80000C23CAF80030A3894FF0FF3043F0400302
:103D9000A381BDE8F0873A46216900F0D0FAA389F3
:103DA00023F4906343F08003A38126613E442660A0
:103DB00046466561ED1BA560464528BF4646494617
:103DC0003246206800F0C6FAA36800209B1BA3605F
:103DD00023681E442660BDE8F0872A4600F07EFB7B
:103DE00006460028E1D12169504600F0CDFAC7E728
:103DF0002DE9F04F9DB003938B8980461C060D463C
:103E000016460FD50B696BB9402100F009FB2860FD
:103E1000286128B90C23C8F800304FF0FF30C4E007
:103E200040236B610023099320238DF82930302330
:103E30004FF0010B8DF82A3037463C4614F8013B11
:103E4000002B3CD1B7EB060A0BD05346324629462D
:103E50004046FFF772FF013000F0A280099B5344F7
:103E600009933B78002B00F09B8000234FF0FF323A
:103E700004930793059206938DF853301A93052205
:103E80002178504800F04DFA671C049BD8B9D90638
:103E900044BF20228DF853201A0744BF2B228DF8EF
:103EA000532022782A2A16D000210A20079A274672
:103EB0003B780134303B092B50D9C9B111E0252B97
:103EC000C0D02746B9E73F4A3C46801A0BFA00F0BB
:103ED00018430490D3E7039A111D12680391002A36
:103EE00001DB079204E0524243F00203079204937D
:103EF0003B782E2B0DD17B78791C2A2B32D1039B5A
:103F000002371A1D1B680392002BB8BF4FF0FF3316
:103F100005932D4C03223978204600F002FA38B17F
:103F20004023001B03FA00F0049B01370343049372
:103F30003978062225487E1C8DF8281000F0F1F90A
:103F4000002835D0224BFBB9039B073323F007032E
:103F500008330393099B4B4409936DE700FB02323E
:103F60000121A4E700230A24184605930F463A7856
:103F70000131303A092A03D9002BCAD00590C8E78D
:103F800004FB00200123F1E703AB00932A46114B09
:103F900004A94046AFF30080B0F1FF3F8146D9D17C
:103FA000AB895B063FF539AF09981DB0BDE8F08FCE
:103FB00003AB00932A46074B04A9404600F084F85F
:103FC000EAE700BF445D00084A5D00084E5D000856
:103FD000000000003B3D00082DE9F04791461F46D8
:103FE0008A680B6906469342B8BF1346C9F8003089
:103FF00091F843200C46DDF8208012B10133C9F856
:1040000000302368990642BFD9F800300233C9F85E
:104010000030256815F0060507D104F1190AE36898
:10402000D9F800209B1A9D422ADB94F8433022687D
:10403000003318BF012392062FD404F143023946FE
:104040003046C047013022D02368E56803F00603FC
:10405000042B18BF0025D9F800204FF0000908BF35
:10406000AD1AA368226908BF25EAE5759342C4BF6B
:104070009B1AED181A344D451BD10020BDE8F0877E
:104080000123524639463046C047013003D14FF034
:10409000FF30BDE8F0870135C1E73020E11881F835
:1040A00043005A1C94F845102244023382F843100E
:1040B000C3E70123224639463046C0470130E6D0E7
:1040C00009F10109D7E700002DE9F04317460A7E00
:1040D00085B06E2A984606460C460C9B01F1430EAD
:1040E00000F0BC801AD8632A2ED00AD8002A00F02B
:1040F000C880582A00F08A8004F1420584F84220E2
:104100002AE0642A01D0692AF6D121681A6811F0E0
:10411000800F23D0111D1960136827E0732A00F067
:10412000B48008D86F2A2AD0702AE5D10A6842F0F4
:1041300020020A6003E0752A21D0782ADCD1782297
:104140006F4984F8452064E01A6801F14205111DA9
:104150001960136884F842300123A3E011F0400F86
:1041600002F104011960D7D0B2F90030002B03DA54
:104170002D225B4284F8432062490A2217E020681E
:10418000196810F0800F03D0081D18600B6806E056
:1041900010F0400F01F104001860F7D00B886F2A6F
:1041A00014BF0A2208225749002084F8430065689A
:1041B000002DA560C0F29C80206820F004002060E3
:1041C000002B3FD1002D40F095807546082A0BD179
:1041D0002368DA0708D5236962689A42DEBF302374
:1041E00005F8013C05F1FF35AEEB05032361CDF881
:1041F00000803B4603AA21463046FFF7EDFE013022
:1042000055D14FF0FF3005B0BDE8F08381F845206F
:104210003C492268186812F0800F00F104051D6007
:1042200001D0036802E05506FBD50388D00744BFE0
:1042300042F0200222601BB9226822F02002226094
:104240001022B1E77546B3FBF2F002FB1033CB5CF2
:1042500005F8013D03460028F5D1B7E708681A685C
:1042600010F0800F496904D0101D186013681960A0
:1042700007E010F0400F02F1040018601368F6D058
:104280001980002375462361B1E71A68111D196072
:10429000156800216268284600F043F808B1401B09
:1042A000606063682361002384F843309FE72369DB
:1042B0002A4639463046C0470130A2D023689B07C2
:1042C00007D5002504F11909E368039A9B1A9D425A
:1042D00005DBE068039B9842B8BF184693E70123CB
:1042E0004A4639463046C04701308AD00135EBE7AF
:1042F000002BA7D10B7804F1420584F8423065E722
:10430000665D0008555D000849B1FF2A8BBF8A230E
:104310000A700360012088BF4FF0FF3070470846E5
:10432000704710B5C9B202449042034601D1002043
:1043300010BD1C7801308C42F6D1184610BD10B566
:10434000431E0A44914200D110BD11F8014B03F8FD
:10435000014FF7E7884210B501EB020303D8421E74
:1043600099420CD110BD9842F9D28118D21AD34289
:1043700000D110BD13F8014D01F8014DF7E711F818
:10438000014B02F8014FEBE738B50546002943D051
:1043900051F8043C0C1F002BB8BFE41800F0D4F80F
:1043A0001E4A1368104633B9636014602846BDE89E
:1043B000384000F0CAB8A3420BD921686218934272
:1043C00001BF1A685B685218226063600460EDE701
:1043D00013465A680AB1A242FAD919685818A0427D
:1043E0000BD120680144581882421960DED1106850
:1043F0005268014419605A60D8E702D90C232B6037
:10440000D4E7206821188A4201BF11685268091850
:10441000216062605C60C9E738BD00BF780200209F
:1044200070B5CD1C25F0030508350C2D38BF0C25C3
:10443000002D064601DBA94203D90C23336000207E
:1044400070BD00F081F8234A1468214691B9224CCE
:1044500023681BB9304600F067F8206029463046D3
:1044600000F062F8431C26D10C233046336000F084
:104470006CF8E4E70B685B1B1AD40B2B0FD90B60AD
:10448000CC18CD50304600F060F804F10B00231D2D
:1044900020F00700C31A1BD05A42E25070BD8C4274
:1044A0000BBF63684B681360636018BF0C46E9E795
:1044B0000C464968CAE7C41C24F00304A04205D096
:1044C000211A304600F030F80130CDD02560D9E710
:1044D00070BD00BF780200207C020020F8B50746BE
:1044E00014460E4621B91146BDE8F840FFF798BFC3
:1044F00022B9FFF749FF25462846F8BD00F026F807
:1045000084420FD921463846FFF78AFF0546002826
:10451000F2D031462246FFF712FF31463846FFF708
:1045200033FFE9E73546E7E738B50023054C054694
:1045300008462360FFF7FEF8431C02D1236803B14D
:104540002B6038BDF00500207047704751F8040C0F
:104550000028A0F10400BCBF0B58C0187047000031
:104560002DE9F0438BB004460D4600F0D9F9344BE9
:10457000804693F900608946731C5CD022462B4626
:1045800020462946FCF748FA0746002853D1002266
:10459000002320462946FCF721FA00284BD0294B5E
:1045A00008970193CDE90245CDE90445A6B94FF03E
:1045B0006042254B2046CDE90623294600220023F0
:1045C000FCF7F8F940BB0123022E009319D1FFF745
:1045D00083FA2123036019E000221C4B2046CDE919
:1045E0000623294600220023FCF7E4F90028EAD03C
:1045F00002239E42009311D1FFF76EFA222303603B
:1046000011E0684600F0B7FF0028E0D0104800F045
:10461000B5FFCDE9060106E002230093684600F0ED
:10462000AAFF0028E8D0089B1BB1FFF755FA089BAA
:104630000360DDE90689404649460BB0BDE8F083DA
:1046400018020020785E0008FFFFEFC70000F0FFAF
:10465000215D00082DE9F04F8FB01D468046894648
:10466000144600F0E1F9A54FCDE9000197F90030BB
:104670003E46029301335FD022462B462046294610
:10468000FCF7CAF98246002856D142464B464046BE
:104690004946FCF7C1F90390E8B100220023204607
:1046A0002946FCF787F9002846D00123002204930D
:1046B000934BCDF830A00593924BCDE90689CDE917
:1046C0000A23029BCDE90845022B31D004A800F053
:1046D00052FF38BB58E04FF0000A4FF0000B524633
:1046E0005B4640464946FCF765F9002851D05246E2
:1046F0005B4620462946FCF75DF9064608B30123D0
:1047000004937F4BCDE906890593039BCDE90845CA
:104710000C93029BCDE90AAB002BD7D00022794B3A
:10472000CDE90A230C9B1BB1FFF7D6F90C9B036064
:10473000DDE90A348DE81800DDE900010FB0BDE8BD
:10474000F08F2046294600F010FF0028F4D0524692
:104750005B4620462946FCF737F90028ECD00123B8
:104760000493674B0C96059397F90030CDE90689C1
:10477000CDE9084513B9CDE90AABA7E700206249A6
:10478000022BCDE90A01A1D1FFF7A6F9212303608D
:10479000C8E7DDE9000100F0E8FE029000287FD1C3
:1047A0004046494600F0E1FE002879D020462946DF
:1047B00000F0DBFE002873D0DDE900231946104627
:1047C000FCF72AF997F900704D4BA0B1012205932F
:1047D000029B04920C93CDE90689CDE90845002F90
:1047E000C9D052465B4650465946FBF7A5FF022FFB
:1047F000CDE90A01C7E70322059304920C90CDE9A5
:104800000689CDE9084557BB4FF060423F4B404613
:10481000CDE90A23494652465B46FCF7D5F8002805
:1048200064D000223A4B20462946FBF75BFE044643
:104830000D4600F0A9FE02460B4620462946FCF72D
:10484000B9F820B94FF06042324BCDE90A2396F90E
:104850000030022B4AD1FFF73FF9222397E70022CD
:104860002D4B4046CDE90A23494652465B46FCF7AC
:10487000ABF80028EBD00022254B20462946FBF759
:1048800031FE04460D4600F07FFE02460B462046F0
:104890002946FCF78FF80028D9D100221A4BD4E71B
:1048A0000022DDE900010023FCF784F800283FF432
:1048B00043AF4046494600F058FE00283FF43CAF65
:1048C0002046294600F051FE00283FF435AF04236E
:1048D00004930B4BCDE908450593002300240C936A
:1048E0000023CDE90689CDE90A34B0E704A800F039
:1048F00042FE00287FF416AFADE700BF180200208B
:104900007E5E00080000F03F0000F0FFFFFFEF4771
:104910000000E03FFFFFEFC70000F07F0000000055
:10492000B1F5801F2DE9F843024604460D460B46BB
:1049300028DA21F00046324307D10022002300206C
:104940003549FBF7F9FEBDE8F883002906DA02468F
:104950000B46FBF713FC00220023F2E700222F4B4B
:10496000FBF7C0FD6FF0350204460D460B462C499F
:104970008B4209DD22462B4620462946FBF700FCE8
:10498000BDE8F8830022F2E71815A0F2FF301044CA
:104990004FEAD0794844C3F31308FBF73DFDC9F54E
:1049A0007F73033348EA035506460F4620462946DF
:1049B00000F0E2FE12A3D3E9002380468946304688
:1049C0003946FBF78FFD10A3D3E9002304460D46BB
:1049D00040464946FBF786FD02460B4620462946DF
:1049E000FBF7CEFB0AA3D3E9002304460D4630466D
:1049F0003946FBF777FD02460B4620462946BDE7C0
:104A0000362BF111F3FE593D0EE526157BCBDB3F2E
:104A100000609F501344D33F000050C30000504338
:104A2000FFFFEF7F000000002DE9F04F93B0CDE9CC
:104A30000223039E029A26F0004555EA0203074628
:104A400088468246894600F09E84774B21F00044D8
:104A50009C4209DC03D138B9A5420DDC01E09D423E
:104A600002DC9D420ED16AB104F1404404F5801489
:104A700054EA0A0300F087846C4813B0BDE8F04F95
:104A800000F07CBDB9F1000F4FDA694B9D424ADC62
:104A9000A3F154739D4248DD2B15A3F2FF33142B71
:104AA00024DDC3F1340322FA03F101FA03F39A423D
:104AB0003BD101F00101C1F102030093002A56D15C
:104AC000594B9D4222D104F1404303F5801353EA30
:104AD0000A0300F05884574B9C4228DD002E80F2D8
:104AE00056840020002113B0BDE8F08F002A3CD18D
:104AF000C3F1140345FA03F101FA03F39D4240F0B8
:104B00004E8401F00101C1F1020300934A4B9D4222
:104B100014D1002E80F23F843A4643460020464995
:104B2000FBF70AFEDFE70223C7E70023C5E7002EF5
:104B3000D7DA039B029803F10041D4E7B6F1804F26
:104B400006D13A46434638464146FBF7CBFCCAE716
:104B50003A4B9E420BD1B9F1000F08DB3846414673
:104B600013B0BDE8F04F00F051BC0023009338466D
:104B7000414600F0F7FCBAF1000F25D124B12E4BCD
:104B800029F040429A421FD1002E05DA02460B4618
:104B900000202949FBF7D0FDB9F1000FA3DA04F199
:104BA0004044009B04F58014234306D102460B4683
:104BB000FBF7E4FA02460B46B2E7009B012B92D1C9
:104BC00001F1004319468EE74FEAD97909F1FF3325
:104BD0000C930C9A009B134304D13A464346384643
:104BE0004146E5E7164B9D4240F3FC8003F1047318
:104BF0009D420BDD0F4B9C420EDC002EBFF671AFC9
:104C000007A3D3E90023104619469EE70D4B9C42AB
:104C1000F3DD094B9C4217DD002EF1DC61E700BF9C
:104C20009C7500883CE4377E0000F07F215D000821
:104C3000FFFF3F43FFFFEF3F0000F03F0000E03F7A
:104C40000000E041FEFFEF3F0022614BFBF796FAC8
:104C500055A3D3E9002304460D46FBF743FC54A3B8
:104C6000D3E9002306460F4620462946FBF73AFCC7
:104C7000002282468B46574B20462946FBF732FCE2
:104C800002460B464CA1D1E90001FBF777FA224618
:104C90002B46FBF727FC02460B4600204E49FBF74C
:104CA0006DFA22462B468046894620462946FBF768
:104CB00019FC02460B4640464946FBF713FC40A34D
:104CC000D3E90023FBF70EFC02460B46504659463B
:104CD000FBF754FA02460B4604460D463046394669
:104CE000FBF74EFA00208B46824632463B46FBF7E6
:104CF00045FA02460B4620462946FBF73FFA009B41
:104D00000C9A013B13434FF000030CBF334C304C63
:104D100006468DE81800DDE9024500240F46DDE96E
:104D2000020122462B46FBF729FA52465B46FBF767
:104D3000D9FBDDE902238046894630463946FBF738
:104D4000D1FB02460B4640464946FBF719FA22467C
:104D50002B468046894650465946FBF7C3FB04461E
:104D60000D460B46024649464046CDE90245FBF753
:104D700007FA1B4B824699420F460E4640F3DA82F1
:104D800001F13F4303F5E003034300F0D5810EA397
:104D9000D3E90023DDE90001FBF7A4FB0AA3D3E973
:104DA0000023D2E6AFF30080000000604715F73F14
:104DB00044DF5DF80BAE543E555555555555D53F1E
:104DC000FE822B654715F73F9C7500883CE4377ED3
:104DD0000000F03F0000D03F0000E03F0000F0BFC7
:104DE000FFFF8F40B4F5801F4FF0000205DACA4B79
:104DF000FBF778FB6FF034020C462315A3F2FF3368
:104E000013440793C54BC4F3130444F07F559C42ED
:104E100045F4401508DDC24B9C4240F35481079B8A
:104E2000A5F580150133079300262946F3000D935D
:104E3000BC4BF200134418CBCDE90A341A46234682
:104E4000CDE90801FBF79AF9DDE90A23CDE90E0166
:104E5000DDE90801FBF794F902460B460020B24950
:104E6000FBF76AFC02460B46CDE91001DDE90E01B5
:104E7000FBF738FBCDE90401DDE904AB4FF0000A94
:104E800000226D1045F0005505F5002505EB864321
:104E90005946504614461D46FBF724FB02460B4676
:104EA000DDE90E01FBF76AF9DDE90A2306460F4644
:104EB00020462946FBF762F902460B46DDE9080168
:104EC000FBF75CF95B465246FBF70CFB02460B46D0
:104ED00030463946FBF752F9DDE91023FBF702FBB8
:104EE000DDE90423CDE9080110461946FBF7FAFA7B
:104EF00077A3D3E9002304460D46FBF7F3FA76A324
:104F0000D3E90023FBF73CF922462B46FBF7EAFAEC
:104F100073A3D3E90023FBF733F922462B46FBF7B3
:104F2000E1FA71A3D3E90023FBF72AF922462B46C5
:104F3000FBF7D8FA6EA3D3E90023FBF721F9224649
:104F40002B46FBF7CFFA6CA3D3E90023FBF718F944
:104F5000224606460F462B4620462946FBF7C2FA54
:104F600002460B4630463946FBF7BCFA04460D466E
:104F7000DDE904015B465246FBF702F9DDE908234F
:104F8000FBF7B0FA22462B46FBF7FAF85B460646DB
:104F90000F46524659465046FBF7A4FA0022634B8F
:104FA000CDE90A01FBF7ECF832463B46FBF7E8F89F
:104FB00050460D4602460B4650465946FBF792FABC
:104FC000002280468946594B29465046FBF7D6F8C1
:104FD000DDE90A23FBF7D2F802460B463046394694
:104FE000FBF7CCF8DDE90423FBF77CFA2B460646F9
:104FF0000F46DDE908015246FBF774FA02460B46FC
:1050000030463946FBF7BCF806460F4602460B46CB
:1050100040464946FBF7B4F839A3D3E9002350468C
:105020000D46FBF75FFA4246CDE904014B4629469F
:105030005046FBF7A3F802460B4630463946FBF7CD
:105040009DF831A3D3E90023FBF74CFA30A3D3E951
:10505000002306460F4650462946FBF743FA024610
:105060000B4630463946FBF78BF80D9A304B13440C
:10507000D3E90023FBF784F8044607980D46FBF7B5
:10508000CBF906460F460D9A2A4BDDE9040113447D
:10509000D3E9008922462B46FBF772F842464B467D
:1050A000FBF76EF832463B46FBF76AF832463B4662
:1050B00050468B46FBF762F842464B46FBF75EF8DC
:1050C000DDE9042313E60126AFE600BFAFF300805D
:1050D000EF4E454A287ECA3F65DBC9934A86CD3FDD
:1050E00001411DA96074D13F4D268F515555D53FC3
:1050F000FFAB6FDBB66DDB3F033333333333E33F5B
:10510000000000E009C7EE3FFD033ADC09C7EE3FAF
:10511000F5015B14E02F3EBE000040438E98030073
:1051200079B60B00885E00080000F03F00000840E0
:10513000A85E0008985E00089BA3D3E900234046C0
:105140004946FBF71DF82246CDE904012B4650469F
:105150003946FBF713F802460B46DDE90401FBF77D
:1051600051FC00287FF413AEA34A26F0004393427B
:1051700040F304814FF4801A00201B15A3F2FE3384
:105180004AFA03F33344C3F30A529C4FA2F2FF32AC
:105190001741C3F3130A23EA0701C2F114024AF4C8
:1051A000801A4AFA02FA002E02460B462046294689
:1051B000B8BFCAF1000AFAF7E1FFCDE90201DDE963
:1051C000020142464B46FAF7DBFF79A3D3E90023FD
:1051D00000200D460446FBF785F9DDE9022306466B
:1051E0000F4620462946FAF7C9FF02460B464046BD
:1051F0004946FAF7C3FF70A3D3E90023FBF772F91E
:105200006FA3D3E900238046894620462946FBF751
:1052100069F902460B4640464946FAF7B1FF044693
:105220000D4602460B4630463946FAF7A9FF32468C
:105230003B4680468946FAF7A1FF02460B462046C8
:105240002946FAF79BFF424606460F464B46404624
:105250004946FBF747F95CA3D3E9002304460D4612
:10526000FBF740F95AA3D3E90023FAF787FF224658
:105270002B46FBF737F958A3D3E90023FAF780FF51
:1052800022462B46FBF72EF955A3D3E90023FAF764
:1052900075FF22462B46FBF725F953A3D3E90023DC
:1052A000FAF76EFF22462B46FBF71CF902460B4627
:1052B00040464946FAF762FF04460D4602460B4651
:1052C00040464946FBF70EF90022CDE902014FF0B6
:1052D000804320462946FAF751FF02460B46DDE996
:1052E0000201FBF729FA324604460D463B4640468A
:1052F0004946FBF7F7F832463B46FAF741FF0246CC
:105300000B4620462946FAF739FF42464B46FAF744
:1053100035FF02460B4600203949FAF72FFF01EB13
:105320000A54B4F5801F2CDA524600F0B5F9DDE9D5
:1053300000230AE4334B21F000479F427FF714AF6C
:10534000314B0B4403430BD029A3D3E90023DDE900
:105350000001FBF7C7F826A3D3E90023FFF7F5BB4D
:1053600022462B46FAF70AFF02460B4640464946BC
:10537000FBF734FB00283FF4F7AEE5E74FF0000AF7
:105380001DE72146D3E700201D49FFF7ACBBDDE94F
:105390000201FFF7A8BB38464146FFF7A4BB0092C5
:1053A000FFF7B4BBAFF30080FE822B654715973C37
:1053B00000000000432EE63FEF39FAFE422EE63FA2
:1053C000396CA80C615C20BED0A4BE726937663E01
:1053D000F16BD2C541BDBB3E2CDE25AF6A56113FF5
:1053E00093BDBE166CC1663F3E5555555555C53FDC
:1053F00059F3F8C21F6EA5010000E03FFFFF0F0048
:105400000000F03FFFCB904000346F3F2DE9F041AA
:10541000DFF84CE106463EEA010E0D4607460A4615
:105420000C4603460FD102460B46FBF75BF80246DB
:105430000B4630462946FAF7A3FE06460D4630468F
:105440002946BDE8F08100290EDC21F0004E5EEA1D
:105450000707F4D041B102460B46FAF78FFE024629
:105460000B46FBF769F9E8E712150CD1002C6ED05A
:105470000021E6026FD5481E121AC1F1200023FA5E
:1054800000F004438B40A2F2FF32D5074FF0000535
:10549000C4F3130444F4801442BF640004EBD374D7
:1054A0005B0004EBD3715010214416222C464FF4BC
:1054B00000165B00A7198F42DEBFC91BBC19AD19CE
:1054C0004900013A01EBD3714FEA56064FEA430314
:1054D000F0D14FF0200E94464FF00046A14206EB6B
:1054E0000C0702DC12D19F4210D8002F07EB060CEC
:1054F00034DABCF1000F31DB04F10108091B44462A
:105500009F4288BF01F1FF31DB1B324401EBD377AF
:10551000BEF1010E39444FEA43034FEA5606DDD18E
:105520000B4306D0541C0BBF72460132013522F0EA
:1055300001026B105208E90703F17F5303F50013D2
:1055400048BF42F0004203EB0055164677E7DC0AFD
:10555000153A5B058AE7640001318AE7A046CDE78A
:105560000000F07F21F00041704741F0004101F55B
:105570008010C00F704700207047000000200149D4
:10558000704700BF0000F87FF7B5C1F30A5EAEF2C6
:10559000FF37132F02460B4684460C4605464FEA5A
:1055A000D17656DC002F29DA21F00041014321D0C9
:1055B000C3F3130505436B422B431B0B640C03F42D
:1055C0000023640443EA0401314B03EBC603D3E92F
:1055D000004522462B46FAF7D3FDCDE90001DDE96F
:1055E000000122462B46FAF7C9FD024621F0004190
:1055F00041EAC6731046194603B0F0BD254939414A
:1056000003EA01001043F5D04B0804EA030252EA12
:105610000C050AD024EA03034FF48024132F0CBF97
:105620004FF0004500253C411C43194B214603EB3C
:10563000C6062846D6E9004522462B46FAF7A0FDC5
:10564000CDE90001DDE9000122462B46FAF796FD7F
:1056500006E0332F07DDB7F5806FCBD1FAF790FD69
:1056600002460B46C6E74FF0FF31AEF2134E21FA69
:105670000EF10842BED04B0818421FBF4FF08045C4
:1056800020EA030345FA0EFE4EEA0305CDE700BF0C
:10569000B85E0008FFFF0F00F8B51646C1F30A52C6
:1056A00004460D460B468AB921F00043034335D02A
:1056B00000222D4BFAF716FF2C4A044696420D465F
:1056C0000B460EDA24A3D3E900231CE040F2FF7757
:1056D000BA4209D102460B46FAF752FD04460D467E
:1056E0001CE0C1F30A52363A40F2FE7132448A425B
:1056F0000CDD22462B461AA1D1E9000100F010FA78
:1057000017A3D3E90023FAF7EDFEE7E7002A08DD47
:1057100023F0FF4323F4E00343EA025520462946E1
:10572000F8BD12F1350F0BDA4CF250339E4222468F
:105730002B46E0DC08A1D1E9000100F0F1F9C1E756
:1057400023F0FF43363223F4E00343EA02552046B8
:1057500029460022064BD6E759F3F8C21F6EA50171
:105760009C7500883CE4377E00005043B03CFFFF4E
:105770000000903C000000002DE9F04FB1F5801FC3
:1057800087B002460B4604460D4624DA21F0004657
:10579000344308D1002200230020C949FAF7CCFF86
:1057A00007B0BDE8F08F002904DAFAF7E7FC002221
:1057B0000023F3E70022C34BFAF794FE6FF035069F
:1057C00002460B460D46C0498D4206DD104619467D
:1057D000FAF7D6FCE4E70026F5E72C15C5F3130528
:1057E00005F51521A4F2FF3401F66471264401F495
:1057F000801484F07F5181F4401141EA0503104682
:1058000019460022B14BFAF7B9FCAB1CC3F31303E2
:10581000022B06EB145482468B464FF000025BDCF1
:105820000023FBF7C7F8D0B1002C00F06E812046B2
:10583000FAF7F2FD8EA3D3E9002306460F46FAF7E6
:1058400051FE8DA3D3E9002304460D463046394668
:10585000FAF748FE02460B4620462946B8E788A3D9
:10586000D3E9002350465946FAF73CFE02460B4660
:1058700000209749FAF782FC524606460F465B46DF
:1058800050465946FAF72EFE02460B463046394638
:10589000FAF728FE06460F4634B902460B46504634
:1058A0005946FAF76BFC7BE72046FAF7B5FD70A383
:1058B000D3E9002380468946FAF714FE6EA3D3E9A4
:1058C000002304460D4640464946FAF70BFE0246C1
:1058D0000B4630463946B2E04FF08043FAF750FCB1
:1058E00002460B4650465946FAF726FFCDE900011D
:1058F0002046FAF791FDDDE90023CDE902011046CB
:105900001946FAF7EFFD02460B46CDE90401FAF716
:10591000E9FD5DA3D3E9002306460F46FAF7E2FD51
:105920005BA3D3E90023FAF72BFC32463B46FAF798
:10593000D9FD59A3D3E90023FAF722FC32463B46AE
:10594000FAF7D0FD56A3D3E90023FAF719FCDDE9F5
:105950000423FAF7C7FD54A3D3E90023CDE90401DA
:1059600030463946FAF7BEFD51A3D3E90023FAF7D2
:1059700007FC32463B46FAF7B5FD4FA3D3E90023B7
:10598000FAF7FEFB32463B46FAF7ACFD02460B4601
:10599000DDE90401FAF7F4FBA5F5C228C5F5D72522
:1059A000A8F27A48513545EA0805002D06460F460B
:1059B00050DD0022464B50465946FAF793FD5246B9
:1059C0005B46FAF78FFD8046894694B902460B463E
:1059D00030463946FAF7D4FBDDE90023FAF782FDB9
:1059E00002460B4640464946FAF7C8FB02460B46BC
:1059F00055E71FA3D3E90023DDE90201FAF772FDA1
:105A000042464B4604460D4630463946FAF7B8FB47
:105A1000DDE90023FAF766FD17A3D3E90023064664
:105A20000F46DDE90201FAF75DFD02460B463046FE
:105A30003946FAF7A5FB02460B4640464946FAF7B7
:105A40009DFB52465B46FAF799FB02460B46204601
:105A5000294626E7002C3DD102460B4650465946C2
:105A6000FAF78CFBDDE90023FAF73CFDBEE700BF47
:105A70000000E0FE422EE63F763C7935EF39EA3D04
:105A8000555555555555D53F44523EDF12F1C23F4D
:105A9000DE03CB966446C73F599322942449D23FF4
:105AA000935555555555E53F9FC678D0099AC33F44
:105AB000AF788E1DC571CC3F04FA97999999D93F5B
:105AC000000050C300005043FFFFEF7F0000F03F95
:105AD0000000E03F0EA3D3E90023DDE90201FAF75D
